:100000000C945D000C9485000C9485000C94850084
:100010000C9485000C9485000C9485000C9485004C
:100020000C9485000C9485000C9485000C9485003C
:100030000C9485000C9485000C9485000C9485002C
:100040000C9480010C9485000C945C040C948E0438
:100050000C9485000C9485000C9485000C9485000C
:100060000C9485000C94850000000008000201003B
:100070000003040700000000000000000102040863
:100080001020408001020408102001020408102002
:10009000040404040404040402020202020203032E
:1000A0000303030300000000250028002B000000CC
:1000B0000000240027002A00BE0411241FBECFEF39
:1000C000D8E0DEBFCDBF11E0A0E0B1E0E6E0FBE0AC
:1000D00002C005900D92A431B107D9F721E0A4E147
:1000E000B1E001C01D92A33CB207E1F710E0CAEBFA
:1000F000D0E004C02297FE010E947D05C83BD107D5
:10010000C9F70E942A050C9481050C94000061E057
:100110008DE00E94A80226E040E855E260E070E031
:1001200086E291E00E94FA0344EF51E06EE08CE138
:1001300091E00E94300190931B0180931A0144EFDB
:1001400051E06FE08CE191E00E9430019093190141
:100150008093180144EF51E060E18CE191E00E944E
:100160003001909317018093160144EF51E061E153
:100170008CE191E00E94300190931501809314016D
:100180000895EF92FF920F931F93CF93DF9344E66E
:1001900050E06EE08CE191E00E9430017C0144E689
:1001A00050E06FE08CE191E00E9430018C0144E668
:1001B00050E060E18CE191E00E943001EC0144E606
:1001C00050E061E18CE191E00E9430016091180102
:1001D000709119014091160150911701209114015D
:1001E00030911501E0911A01F0911B01EE1AFF0AFE
:1001F000E9E2EE16F10494F0061B170B0932110523
:100200006CF0C41BD50BA9974CF0821B930B8997FC
:100210002CF0109201011092000106C081E090E0E4
:10022000909301018093000164E670E080E090E02B
:10023000DF91CF911F910F91FF90EF900C94ED0102
:100240008091000190910101892B11F460E001C0BF
:1002500061E08DE00C94E1020E94C1000C94200149
:10026000BF92CF92DF92EF92FF920F931F93CF93A3
:10027000DF93B62E8A01C0E0D0E0C12CD12C7601EC
:10028000C017D1074CF562E08B2D0E94A802809127
:100290007C008F6180937C0080917A0080648093E1
:1002A0007A0080917A0084FFFCCF80917A0080618F
:1002B00080937A0060E08B2D0E94A8028B2D0E9413
:1002C0006202AC01662757FD6095762FC40ED51EDD
:1002D000E61EF71E2196D4CF9801442737FD40959E
:1002E000542FC701B6010E945C05C901DF91CF916F
:1002F0001F910F91FF90EF90DF90CF90BF900895E6
:100300001F920F920FB60F9211242F933F938F934A
:100310009F93AF93BF9380911E0190911F01A09175
:100320002001B091210130911D0123E0230F2D37D1
:1003300020F40196A11DB11D05C026E8230F0296E9
:10034000A11DB11D20931D0180931E0190931F01DB
:10035000A0932001B093210180912201909123016B
:10036000A0912401B09125010196A11DB11D80939A
:10037000220190932301A0932401B0932501BF9102
:10038000AF919F918F913F912F910F900FBE0F9042
:100390001F9018953FB7F894809122019091230106
:1003A000A0912401B091250126B5A89B05C02F3F3F
:1003B00019F00196A11DB11D3FBF6627782F892F27
:1003C0009A2F620F711D811D911D42E0660F771FEC
:1003D000881F991F4A95D1F708958F929F92AF92E7
:1003E000BF92CF92DF92EF92FF926B017C010E944D
:1003F000CA014B015C01C114D104E104F104F1F024
:100400000E9439050E94CA01681979098A099B0965
:10041000683E73408105910570F321E0C21AD1084E
:10042000E108F10888EE880E83E0981EA11CB11C3B
:10043000C114D104E104F10429F7DDCFFF90EF905E
:10044000DF90CF90BF90AF909F908F900895789459
:1004500084B5826084BD84B5816084BD85B58260C9
:1004600085BD85B5816085BDEEE6F0E08081816067
:100470008083E1E8F0E01082808182608083808167
:1004800081608083E0E8F0E0808181608083E1EB3F
:10049000F0E0808184608083E0EBF0E08081816027
:1004A0008083EAE7F0E080818460808380818260DD
:1004B00080838081816080838081806880831092C6
:1004C000C10008958E3008F08E508770209102018F
:1004D00090E4299F90011124822B80937C008091CD
:1004E0007A00806480937A0080917A0086FDFCCF48
:1004F000809178002091790090E0922B08958330CC
:1005000081F028F4813099F08230A1F0089587308D
:10051000A9F08830B9F08430D1F4809180008F7DCB
:1005200003C0809180008F7780938000089584B508
:100530008F7702C084B58F7D84BD08958091B0000F
:100540008F7703C08091B0008F7D8093B0000895B5
:10055000CF93DF9390E0FC01E458FF4F2491FC011E
:10056000E057FF4F8491882349F190E0880F991F4D
:10057000FC01E255FF4FA591B4918C559F4FFC01B2
:10058000C591D4919FB7611108C0F8948C912095C2
:1005900082238C93888182230AC0623051F4F894BC
:1005A0008C91322F309583238C938881822B888382
:1005B00004C0F8948C91822B8C939FBFDF91CF91D4
:1005C00008950F931F93CF93DF931F92CDB7DEB79C
:1005D000282F30E0F901E859FF4F8491F901E458E0
:1005E000FF4F1491F901E057FF4F04910023C9F028
:1005F000882321F069830E947F026981E02FF0E067
:10060000EE0FFF1FEC55FF4FA591B4919FB7F894E3
:100610008C91611103C01095812301C0812B8C93B3
:100620009FBF0F90DF91CF911F910F910895FC0113
:10063000818D228D90E0805C9F4F821B91098F738A
:1006400099270895FC01918D828D981731F0828D44
:10065000E80FF11D858D90E008958FEF9FEF0895CD
:10066000FC01918D828D981761F0828DDF01A80FBA
:10067000B11D5D968C91928D9F5F9F73928F90E0DC
:1006800008958FEF9FEF089584EB94E0892B49F054
:1006900080E090E0892B29F00E94B40481110C9431
:1006A00000000895FC01848DDF01A80FB11DA35A3D
:1006B000BF4F2C91848D90E001968F739927848F82
:1006C000A689B7892C93A089B1898C9180648C9379
:1006D000938D848D981306C00288F389E02D808164
:1006E0008F7D80830895CF93DF93EC01888D8823DD
:1006F000C9F0EA89FB89808185FD05C0A889B9898F
:100700008C9186FD0FC00FB607FCF5CF808185FF69
:10071000F2CFA889B9898C9185FFEDCFCE010E94D7
:100720005203E7CFDF91CF910895CF92DF92FF92EE
:100730000F931F93CF93DF931F92CDB7DEB76C015A
:1007400081E0D60158968C9358975B969C915B9765
:100750005C968C915C97981307C05096ED91FC9134
:100760005197808185FD2EC0F601038D10E00F5F4B
:100770001F4F0F731127F02EF601848DF81211C050
:100780000FB607FCF9CFD6015096ED91FC91519729
:10079000808185FFF1CFC60169830E945203698180
:1007A000EBCF838DE80FF11DE35AFF4F6083D60135
:1007B0005B960C935B975296ED91FC9153978081D9
:1007C00080620CC0D6015696ED91FC9157976083DC
:1007D0005096ED91FC91519780818064808381E0F7
:1007E00090E00F90DF91CF911F910F91FF90DF90DC
:1007F000CF900895BF92CF92DF92EF92FF92CF9366
:10080000DF93EC016A017B01B22EE889F98982E06D
:100810008083411581EE580761057105A1F060E004
:1008200079E08DE390E0A70196010E943A052150FE
:100830003109410951095695479537952795211555
:1008400080E1380798F0E889F989108260E874E857
:100850008EE190E0A70196010E943A0521503109EE
:10086000410951095695479537952795EC85FD85A2
:100870003083EE85FF852083188EEC89FD89B08258
:10088000EA89FB89808180618083EA89FB89808194
:1008900088608083EA89FB89808180688083EA8917
:1008A000FB8980818F7D8083DF91CF91FF90EF90D6
:1008B000DF90CF90BF9008951F920F920FB60F92C6
:1008C00011242F938F939F93EF93FF93E091360121
:1008D000F09137018081E0913C01F0913D0182FD72
:1008E00012C0908180913F018F5F8F7320914001F2
:1008F000821751F0E0913F01F0E0EA5DFE4F958FE5
:1009000080933F0101C08081FF91EF919F918F9172
:100910002F910F900FBE0F901F9018951F920F925E
:100920000FB60F9211242F933F934F935F936F93C2
:100930007F938F939F93AF93BF93EF93FF9386E241
:1009400091E00E945203FF91EF91BF91AF919F916F
:100950008F917F916F915F914F913F912F910F9068
:100960000FBE0F901F90189586E291E00E9417032A
:1009700021E0892B09F420E0822F089510922901AB
:100980001092280188EE93E0A0E0B0E080932A0165
:1009900090932B01A0932C01B0932D0187E091E05F
:1009A000909327018093260185EC90E0909333018A
:1009B0008093320184EC90E0909335018093340170
:1009C00080EC90E0909337018093360181EC90E0C9
:1009D000909339018093380182EC90E090933B0131
:1009E00080933A0186EC90E090933D0180933C0126
:1009F00010923F0110924001109241011092420169
:100A00000895CF92DF92EF92FF920F931F93CF93AF
:100A1000DF937C016A01EB0100E010E00C151D057D
:100A200071F06991D701ED91FC910190F081E02D79
:100A3000C7010995892B19F00F5F1F4FEFCFC80130
:100A4000DF91CF911F910F91FF90EF90DF90CF90AA
:100A5000089508950E9427020E9429050E94870098
:100A6000C4E4D3E00E942C012097E1F30E944403E8
:100A7000F9CF0895A1E21A2EAA1BBB1BFD010DC0E0
:100A8000AA1FBB1FEE1FFF1FA217B307E407F5073E
:100A900020F0A21BB30BE40BF50B661F771F881F1A
:100AA000991F1A9469F760957095809590959B01B0
:100AB000AC01BD01CF010895052E97FB1EF40094F3
:100AC0000E94730557FD07D00E943A0507FC03D02A
:100AD0004EF40C94730550954095309521953F4FF9
:100AE0004F4F5F4F089590958095709561957F4F1A
:100AF0008F4F9F4F0895EE0FFF1F0590F491E02D4B
:060B00000994F894FFCFF8
:100B060001000100000000950301051703300322D0
:040B16000373030062
:107E0000112484B714BE81FFF0D085E080938100F7
:107E100082E08093C00088E18093C10086E0809377
:107E2000C20080E18093C4008EE0C9D0259A86E02C
:107E300020E33CEF91E0309385002093840096BBD3
:107E4000B09BFECF1D9AA8958150A9F7CC24DD24C4
:107E500088248394B5E0AB2EA1E19A2EF3E0BF2EE7
:107E6000A2D0813461F49FD0082FAFD0023811F036
:107E7000013811F484E001C083E08DD089C08234E0
:107E800011F484E103C0853419F485E0A6D080C0E4
:107E9000853579F488D0E82EFF2485D0082F10E0AE
:107EA000102F00270E291F29000F111F8ED06801E7
:107EB0006FC0863521F484E090D080E0DECF843638
:107EC00009F040C070D06FD0082F6DD080E0C81688
:107ED00080E7D80618F4F601B7BEE895C0E0D1E017
:107EE00062D089930C17E1F7F0E0CF16F0E7DF06D8
:107EF00018F0F601B7BEE89568D007B600FCFDCFD4
:107F0000A601A0E0B1E02C9130E011968C91119780
:107F100090E0982F8827822B932B1296FA010C0160
:107F200087BEE89511244E5F5F4FF1E0A038BF0790
:107F300051F7F601A7BEE89507B600FCFDCF97BE46
:107F4000E89526C08437B1F42ED02DD0F82E2BD052
:107F50003CD0F601EF2C8F010F5F1F4F84911BD097
:107F6000EA94F801C1F70894C11CD11CFA94CF0C13
:107F7000D11C0EC0853739F428D08EE10CD085E9AC
:107F80000AD08FE07ACF813511F488E018D01DD067
:107F900080E101D065CF982F8091C00085FFFCCF94
:107FA0009093C60008958091C00087FFFCCF809118
:107FB000C00084FD01C0A8958091C6000895E0E648
:107FC000F0E098E1908380830895EDDF803219F02E
:107FD00088E0F5DFFFCF84E1DECF1F93182FE3DFCA
:107FE0001150E9F7F2DF1F91089580E0E8DFEE27F6
:047FF000FF270994CA
:027FFE00040479
:0400000300007E007B
:00000001FF
