:100000000C945D000C9485000C9485000C94850084
:100010000C9485000C9485000C9485000C9485004C
:100020000C9485000C9485000C9485000C9485003C
:100030000C9485000C9485000C9485000C9485002C
:100040000C94E9020C9485000C94B7020C94910274
:100050000C9485000C9485000C9485000C9485000C
:100060000C9485000C9485000000000024002700FB
:100070002A0000000000250028002B0004040404CE
:100080000404040402020202020203030303030342
:10009000010204081020408001020408102001021F
:1000A00004081020000000080002010000030407FB
:1000B0000000000000000000520411241FBECFEF1A
:1000C000D8E0DEBFCDBF11E0A0E0B1E0EAE9F9E0A1
:1000D00002C005900D92A231B107D9F721E0A2E14B
:1000E000B1E001C01D92A03CB207E1F710E0CDE500
:1000F000D0E004C02197FE010E94C004CC35D10796
:10010000C9F70E9433030C94CB040C940000E6EA78
:10011000F0E02491E2E9F0E09491EEE7F0E0E49180
:10012000EE2309F43BC0222339F1233091F038F457
:100130002130A9F0223001F524B52F7D12C02730DF
:1001400091F02830A1F02430B9F4209180002F7D67
:1001500003C0209180002F77209380000DC024B52C
:100160002F7724BD09C02091B0002F7703C02091C4
:10017000B0002F7D2093B000F0E0EE0FFF1FEE588F
:10018000FF4FA591B4912FB7F894EC91811103C062
:1001900090959E2301C09E2B9C932FBF0895CF92D4
:1001A000DF92EF92FF920F931F93CF93DF936C0137
:1001B0007A018B01C0E0D0E0CE15DF0589F0D801CF
:1001C0006D918D01D601ED91FC910190F081E02DB2
:1001D000C6010995892B11F47E0102C02196ECCF4E
:1001E000C701DF91CF911F910F91FF90EF90DF90AA
:1001F000CF900895FC01918D828D981761F0828DCA
:10020000DF01A80FB11D5D968C91928D9F5F9F734A
:10021000928F90E008958FEF9FEF0895FC01918DEC
:10022000828D981731F0828DE80FF11D858D90E059
:1002300008958FEF9FEF0895FC01918D228D892FF6
:1002400090E0805C9F4F821B91098F7399270895DE
:100250008BE191E00E941C0121E0892B09F420E050
:10026000822F0895FC01848DDF01A80FB11DA35AD0
:10027000BF4F2C91848D90E001968F739927848FC6
:10028000A689B7892C93A089B1898C9180648C93BD
:10029000938D848D981306C00288F389E02D8081A8
:1002A0008F7D80830895EF92FF920F931F93CF93DA
:1002B000DF93EC0181E0888F9B8D8C8D981305C0B6
:1002C000E889F989808185FD24C0F62E0B8D10E028
:1002D0000F5F1F4F0F731127E02E8C8DE8120CC09B
:1002E0000FB607FCFACFE889F989808185FFF5CF41
:1002F000CE010E943201F1CF8B8DFE01E80FF11D7E
:10030000E35AFF4FF0820B8FEA89FB89808180627C
:1003100007C0EE89FF896083E889F989808180645C
:10032000808381E090E0DF91CF911F910F91FF904A
:10033000EF900895CF93DF93EC01888D8823C9F067
:10034000EA89FB89808185FD05C0A889B9898C91DE
:1003500086FD0FC00FB607FCF5CF808185FFF2CF79
:10036000A889B9898C9185FFEDCFCE010E94320119
:10037000E7CFDF91CF91089580E090E0892B29F0BD
:100380000E94280181110C9400000895CF93DF93FF
:1003900090E0FC01E057FF4F2491FC01E458FF4F2F
:1003A0008491882361F190E0880F991FFC01E8593E
:1003B000FF4FC591D491FC01EE58FF4FA591B49128
:1003C000611109C09FB7F8948881209582238883A2
:1003D000EC912E230BC0623061F49FB7F894388102
:1003E000822F809583238883EC912E2B2C939FBFA3
:1003F00006C08FB7F894E8812E2B28838FBFDF913A
:10040000CF910895AF92BF92CF92DF92EF92FF9279
:100410000F931F93CF93DF93A82EEB0192EF980FCA
:100420008DE08A1508F09A2D97709064B92E00E03F
:1004300010E0C12CD12C76010C171D07BCF562E031
:100440008A2D0E94C60180917C008F6180937C0080
:1004500080917A00806480937A0080917A0084FF92
:10046000FCCF80917A00806180937A0060E08A2DD1
:100470000E94C601B0927C0080917A0080648093D3
:100480007A0080917A0086FDFCCF409178008091BF
:10049000790050E0582B052E000C660B770BC40E2C
:1004A000D51EE61EF71E0F5F1F4FC6CF9E01DD0F44
:1004B000440B550BC701B6010E947F04C901DF91AF
:1004C000CF911F910F91FF90EF90DF90CF90BF9051
:1004D000AF9008953FB7F89480911701909118015B
:1004E000A0911901B0911A0126B5A89B05C02F3F14
:1004F00019F00196A11DB11D3FBFBA2FA92F982F4A
:100500008827820F911DA11DB11DBC01CD0142E0C4
:10051000660F771F881F991F4A95D1F708950E948B
:10052000C6041F920F920FB60F9211242F933F9380
:100530004F935F936F937F938F939F93AF93BF93EB
:10054000EF93FF938BE191E00E943201FF91EF91D5
:10055000BF91AF919F918F917F916F915F914F91DB
:100560003F912F910F900FBE0F901F9018951F92E3
:100570000F920FB60F9211242F938F939F93EF93A7
:10058000FF93E0912B01F0912C018081E0913101EA
:10059000F091320182FD12C09081809134018F5F11
:1005A0008F7320913501821751F0E0913401F0E012
:1005B000E55EFE4F958F8093340101C08081FF91ED
:1005C000EF919F918F912F910F900FBE0F901F90E1
:1005D00018951F920F920FB60F9211242F933F93ED
:1005E0008F939F93AF93BF938091130190911401C8
:1005F000A0911501B09116013091120123E0230F53
:100600002D3720F40196A11DB11D05C026E8230F4A
:100610000296A11DB11D20931201809313019093A6
:100620001401A0931501B0931601809117019091C8
:100630001801A0911901B0911A010196A11DB11DD7
:100640008093170190931801A0931901B0931A0198
:10065000BF91AF919F918F913F912F910F900FBEBE
:100660000F901F901895789484B5826084BD84B5EE
:10067000816084BD85B5826085BD85B5816085BD9D
:1006800080916E00816080936E0010928100809155
:1006900081008260809381008091810081608093DD
:1006A0008100809180008160809380008091B10002
:1006B00084608093B1008091B00081608093B0002D
:1006C00080917A00846080937A0080917A008260C1
:1006D00080937A0080917A00816080937A00809183
:1006E0007A00806880937A001092C10061E082E015
:1006F0000E94C601E0912B01F0912C0182E08083E1
:10070000E0912701F09128011082E0912901F091F8
:100710002A018FEC808310923301E0912F01F09138
:10072000300186E08083E0912D01F0912E018081DF
:1007300080618083E0912D01F0912E01808188609D
:100740008083E0912D01F0912E018081806880836B
:10075000E0912D01F0912E0180818F7D808364EFE7
:1007600071E08EE00E9402029093BF018093BE016F
:1007700064EF71E08FE00E9402029093BD018093CC
:10078000BC0164EF71E080E10E9402029093BB0122
:100790008093BA0164EF71E081E10E9402029093BC
:1007A000B9018093B801C1E0D0E064E670E08EE06A
:1007B0000E9402025C0164E670E08FE00E94020287
:1007C0006C0164E670E080E10E9402027C0164E654
:1007D00070E081E10E9402029C016091BC01709175
:1007E000BD014091BA015091BB018091B801909137
:1007F000B901E091BE01F091BF01AE1ABF0AE9E272
:10080000AE16B104BCF0C61AD70A69E2C616D10406
:100810008CF0E41AF50AE9E2EE16F1045CF0A901A5
:10082000481B590B493251052CF0109201011092CE
:10083000000104C0D0930101C09300010E946A022C
:100840004B015C0184E6C82ED12CE12CF12C0E94D6
:100850006A02DC01CB0188199909AA09BB09883E03
:100860009340A105B10558F051E0C51AD108E1083F
:10087000F10868EE860E63E0961EA11CB11CC1143F
:10088000D104E104F10419F7809100019091010174
:10089000892B11F480E001C081E00E9487000E9452
:1008A000BC0183CFEBE1F1E01382128288EE93E08A
:1008B000A0E0B0E084839583A683B78386E091E0CF
:1008C0009183808385EC90E09587848784EC90E029
:1008D0009787868780EC90E0918B808B81EC90E00D
:1008E000938B828B82EC90E0958B848B86EC90E0EE
:1008F000978B868B118E128E138E148E0895052E73
:1009000097FB1EF400940E94960457FD07D00E94A6
:100910009E0407FC03D04EF40C9496045095409529
:10092000309521953F4F4F4F5F4F0895909580959B
:10093000709561957F4F8F4F9F4F0895A1E21A2EBA
:10094000AA1BBB1BFD010DC0AA1FBB1FEE1FFF1F73
:10095000A217B307E407F50720F0A21BB30BE40BC3
:10096000F50B661F771F881F991F1A9469F760950A
:100970007095809590959B01AC01BD01CF010895C4
:10098000EE0FFF1F0590F491E02D099481E090E0B7
:0A099000F8940C94CB04F894FFCF08
:10099A000100000000005301CF001C01FA000E0103
:0209AA009A01B0
:107E0000112484B714BE81FFF0D085E080938100F7
:107E100082E08093C00088E18093C10086E0809377
:107E2000C20080E18093C4008EE0C9D0259A86E02C
:107E300020E33CEF91E0309385002093840096BBD3
:107E4000B09BFECF1D9AA8958150A9F7CC24DD24C4
:107E500088248394B5E0AB2EA1E19A2EF3E0BF2EE7
:107E6000A2D0813461F49FD0082FAFD0023811F036
:107E7000013811F484E001C083E08DD089C08234E0
:107E800011F484E103C0853419F485E0A6D080C0E4
:107E9000853579F488D0E82EFF2485D0082F10E0AE
:107EA000102F00270E291F29000F111F8ED06801E7
:107EB0006FC0863521F484E090D080E0DECF843638
:107EC00009F040C070D06FD0082F6DD080E0C81688
:107ED00080E7D80618F4F601B7BEE895C0E0D1E017
:107EE00062D089930C17E1F7F0E0CF16F0E7DF06D8
:107EF00018F0F601B7BEE89568D007B600FCFDCFD4
:107F0000A601A0E0B1E02C9130E011968C91119780
:107F100090E0982F8827822B932B1296FA010C0160
:107F200087BEE89511244E5F5F4FF1E0A038BF0790
:107F300051F7F601A7BEE89507B600FCFDCF97BE46
:107F4000E89526C08437B1F42ED02DD0F82E2BD052
:107F50003CD0F601EF2C8F010F5F1F4F84911BD097
:107F6000EA94F801C1F70894C11CD11CFA94CF0C13
:107F7000D11C0EC0853739F428D08EE10CD085E9AC
:107F80000AD08FE07ACF813511F488E018D01DD067
:107F900080E101D065CF982F8091C00085FFFCCF94
:107FA0009093C60008958091C00087FFFCCF809118
:107FB000C00084FD01C0A8958091C6000895E0E648
:107FC000F0E098E1908380830895EDDF803219F02E
:107FD00088E0F5DFFFCF84E1DECF1F93182FE3DFCA
:107FE0001150E9F7F2DF1F91089580E0E8DFEE27F6
:047FF000FF270994CA
:027FFE00040479
:0400000300007E007B
:00000001FF
